{"abi":[{"type":"constructor","inputs":[{"name":"_text","type":"string","internalType":"string"}],"stateMutability":"nonpayable"},{"type":"function","name":"getText","inputs":[],"outputs":[{"name":"","type":"string","internalType":"string"}],"stateMutability":"view"}],"bytecode":{"object":"0x608060405234801561000f575f5ffd5b506040516106c33803806106c383398181016040528101906100319190610193565b805f908161003f91906103ea565b50506104b9565b5f604051905090565b5f5ffd5b5f5ffd5b5f5ffd5b5f5ffd5b5f601f19601f8301169050919050565b7f4e487b71000000000000000000000000000000000000000000000000000000005f52604160045260245ffd5b6100a58261005f565b810181811067ffffffffffffffff821117156100c4576100c361006f565b5b80604052505050565b5f6100d6610046565b90506100e2828261009c565b919050565b5f67ffffffffffffffff8211156101015761010061006f565b5b61010a8261005f565b9050602081019050919050565b8281835e5f83830152505050565b5f610137610132846100e7565b6100cd565b9050828152602081018484840111156101535761015261005b565b5b61015e848285610117565b509392505050565b5f82601f83011261017a57610179610057565b5b815161018a848260208601610125565b91505092915050565b5f602082840312156101a8576101a761004f565b5b5f82015167ffffffffffffffff8111156101c5576101c4610053565b5b6101d184828501610166565b91505092915050565b5f81519050919050565b7f4e487b71000000000000000000000000000000000000000000000000000000005f52602260045260245ffd5b5f600282049050600182168061022857607f821691505b60208210810361023b5761023a6101e4565b5b50919050565b5f819050815f5260205f209050919050565b5f6020601f8301049050919050565b5f82821b905092915050565b5f6008830261029d7fffffffffffffffffffffffffffffffffffffffffffffffffffffffffffffffff82610262565b6102a78683610262565b95508019841693508086168417925050509392505050565b5f819050919050565b5f819050919050565b5f6102eb6102e66102e1846102bf565b6102c8565b6102bf565b9050919050565b5f819050919050565b610304836102d1565b610318610310826102f2565b84845461026e565b825550505050565b5f5f905090565b61032f610320565b61033a8184846102fb565b505050565b5b8181101561035d576103525f82610327565b600181019050610340565b5050565b601f8211156103a25761037381610241565b61037c84610253565b8101602085101561038b578190505b61039f61039785610253565b83018261033f565b50505b505050565b5f82821c905092915050565b5f6103c25f19846008026103a7565b1980831691505092915050565b5f6103da83836103b3565b9150826002028217905092915050565b6103f3826101da565b67ffffffffffffffff81111561040c5761040b61006f565b5b6104168254610211565b610421828285610361565b5f60209050601f831160018114610452575f8415610440578287015190505b61044a85826103cf565b8655506104b1565b601f19841661046086610241565b5f5b8281101561048757848901518255600182019150602085019450602081019050610462565b868310156104a457848901516104a0601f8916826103b3565b8355505b6001600288020188555050505b505050505050565b6101fd806104c65f395ff3fe608060405234801561000f575f5ffd5b5060043610610029575f3560e01c8063e00fe2eb1461002d575b5f5ffd5b61003561004b565b604051610042919061014a565b60405180910390f35b60605f805461005990610197565b80601f016020809104026020016040519081016040528092919081815260200182805461008590610197565b80156100d05780601f106100a7576101008083540402835291602001916100d0565b820191905f5260205f20905b8154815290600101906020018083116100b357829003601f168201915b5050505050905090565b5f81519050919050565b5f82825260208201905092915050565b8281835e5f83830152505050565b5f601f19601f8301169050919050565b5f61011c826100da565b61012681856100e4565b93506101368185602086016100f4565b61013f81610102565b840191505092915050565b5f6020820190508181035f8301526101628184610112565b905092915050565b7f4e487b71000000000000000000000000000000000000000000000000000000005f52602260045260245ffd5b5f60028204905060018216806101ae57607f821691505b6020821081036101c1576101c061016a565b5b5091905056fea2646970667358221220f256ca39d1585b43d843a9d641cf68ae6489295e104cd400c7042b0edcc541aa64736f6c634300081c0033","linkReferences":{}},"methodIdentifiers":{"getText()":"e00fe2eb"},"id":15}