{
  "_format": "hh-sol-artifact-1",
  "contractName": "MyERC721",
  "sourceName": "contracts/MyERC721.sol",
  "abi": [
    {
      "inputs": [
        {
          "internalType": "string",
          "name": "name",
          "type": "string"
        },
        {
          "internalType": "string",
          "name": "symbol",
          "type": "string"
        },
        {
          "internalType": "string",
          "name": "baseUri",
          "type": "string"
        },
        {
          "internalType": "uint256",
          "name": "_maxSupply",
          "type": "uint256"
        }
      ],
      "stateMutability": "nonpayable",
      "type": "constructor"
    },
    {
      "inputs": [
        {
          "internalType": "address",
          "name": "sender",
          "type": "address"
        },
        {
          "internalType": "uint256",
          "name": "tokenId",
          "type": "uint256"
        },
        {
          "internalType": "address",
          "name": "owner",
          "type": "address"
        }
      ],
      "name": "ERC721IncorrectOwner",
      "type": "error"
    },
    {
      "inputs": [
        {
          "internalType": "address",
          "name": "operator",
          "type": "address"
        },
        {
          "internalType": "uint256",
          "name": "tokenId",
          "type": "uint256"
        }
      ],
      "name": "ERC721InsufficientApproval",
      "type": "error"
    },
    {
      "inputs": [
        {
          "internalType": "address",
          "name": "approver",
          "type": "address"
        }
      ],
      "name": "ERC721InvalidApprover",
      "type": "error"
    },
    {
      "inputs": [
        {
          "internalType": "address",
          "name": "operator",
          "type": "address"
        }
      ],
      "name": "ERC721InvalidOperator",
      "type": "error"
    },
    {
      "inputs": [
        {
          "internalType": "address",
          "name": "owner",
          "type": "address"
        }
      ],
      "name": "ERC721InvalidOwner",
      "type": "error"
    },
    {
      "inputs": [
        {
          "internalType": "address",
          "name": "receiver",
          "type": "address"
        }
      ],
      "name": "ERC721InvalidReceiver",
      "type": "error"
    },
    {
      "inputs": [
        {
          "internalType": "address",
          "name": "sender",
          "type": "address"
        }
      ],
      "name": "ERC721InvalidSender",
      "type": "error"
    },
    {
      "inputs": [
        {
          "internalType": "uint256",
          "name": "tokenId",
          "type": "uint256"
        }
      ],
      "name": "ERC721NonexistentToken",
      "type": "error"
    },
    {
      "inputs": [
        {
          "internalType": "address",
          "name": "owner",
          "type": "address"
        }
      ],
      "name": "OwnableInvalidOwner",
      "type": "error"
    },
    {
      "inputs": [
        {
          "internalType": "address",
          "name": "account",
          "type": "address"
        }
      ],
      "name": "OwnableUnauthorizedAccount",
      "type": "error"
    },
    {
      "anonymous": false,
      "inputs": [
        {
          "indexed": true,
          "internalType": "address",
          "name": "owner",
          "type": "address"
        },
        {
          "indexed": true,
          "internalType": "address",
          "name": "approved",
          "type": "address"
        },
        {
          "indexed": true,
          "internalType": "uint256",
          "name": "tokenId",
          "type": "uint256"
        }
      ],
      "name": "Approval",
      "type": "event"
    },
    {
      "anonymous": false,
      "inputs": [
        {
          "indexed": true,
          "internalType": "address",
          "name": "owner",
          "type": "address"
        },
        {
          "indexed": true,
          "internalType": "address",
          "name": "operator",
          "type": "address"
        },
        {
          "indexed": false,
          "internalType": "bool",
          "name": "approved",
          "type": "bool"
        }
      ],
      "name": "ApprovalForAll",
      "type": "event"
    },
    {
      "anonymous": false,
      "inputs": [
        {
          "indexed": true,
          "internalType": "address",
          "name": "previousOwner",
          "type": "address"
        },
        {
          "indexed": true,
          "internalType": "address",
          "name": "newOwner",
          "type": "address"
        }
      ],
      "name": "OwnershipTransferred",
      "type": "event"
    },
    {
      "anonymous": false,
      "inputs": [
        {
          "indexed": true,
          "internalType": "address",
          "name": "from",
          "type": "address"
        },
        {
          "indexed": true,
          "internalType": "address",
          "name": "to",
          "type": "address"
        },
        {
          "indexed": true,
          "internalType": "uint256",
          "name": "tokenId",
          "type": "uint256"
        }
      ],
      "name": "Transfer",
      "type": "event"
    },
    {
      "inputs": [
        {
          "internalType": "address",
          "name": "to",
          "type": "address"
        },
        {
          "internalType": "uint256",
          "name": "tokenId",
          "type": "uint256"
        }
      ],
      "name": "approve",
      "outputs": [],
      "stateMutability": "nonpayable",
      "type": "function"
    },
    {
      "inputs": [
        {
          "internalType": "address",
          "name": "owner",
          "type": "address"
        }
      ],
      "name": "balanceOf",
      "outputs": [
        {
          "internalType": "uint256",
          "name": "",
          "type": "uint256"
        }
      ],
      "stateMutability": "view",
      "type": "function"
    },
    {
      "inputs": [
        {
          "internalType": "uint256",
          "name": "tokenId",
          "type": "uint256"
        }
      ],
      "name": "getApproved",
      "outputs": [
        {
          "internalType": "address",
          "name": "",
          "type": "address"
        }
      ],
      "stateMutability": "view",
      "type": "function"
    },
    {
      "inputs": [
        {
          "internalType": "address",
          "name": "owner",
          "type": "address"
        },
        {
          "internalType": "address",
          "name": "operator",
          "type": "address"
        }
      ],
      "name": "isApprovedForAll",
      "outputs": [
        {
          "internalType": "bool",
          "name": "",
          "type": "bool"
        }
      ],
      "stateMutability": "view",
      "type": "function"
    },
    {
      "inputs": [],
      "name": "maxSupply",
      "outputs": [
        {
          "internalType": "uint256",
          "name": "",
          "type": "uint256"
        }
      ],
      "stateMutability": "view",
      "type": "function"
    },
    {
      "inputs": [],
      "name": "name",
      "outputs": [
        {
          "internalType": "string",
          "name": "",
          "type": "string"
        }
      ],
      "stateMutability": "view",
      "type": "function"
    },
    {
      "inputs": [],
      "name": "owner",
      "outputs": [
        {
          "internalType": "address",
          "name": "",
          "type": "address"
        }
      ],
      "stateMutability": "view",
      "type": "function"
    },
    {
      "inputs": [
        {
          "internalType": "uint256",
          "name": "tokenId",
          "type": "uint256"
        }
      ],
      "name": "ownerOf",
      "outputs": [
        {
          "internalType": "address",
          "name": "",
          "type": "address"
        }
      ],
      "stateMutability": "view",
      "type": "function"
    },
    {
      "inputs": [],
      "name": "renounceOwnership",
      "outputs": [],
      "stateMutability": "nonpayable",
      "type": "function"
    },
    {
      "inputs": [
        {
          "internalType": "address",
          "name": "to",
          "type": "address"
        }
      ],
      "name": "safeMint",
      "outputs": [],
      "stateMutability": "nonpayable",
      "type": "function"
    },
    {
      "inputs": [
        {
          "internalType": "address",
          "name": "from",
          "type": "address"
        },
        {
          "internalType": "address",
          "name": "to",
          "type": "address"
        },
        {
          "internalType": "uint256",
          "name": "tokenId",
          "type": "uint256"
        }
      ],
      "name": "safeTransferFrom",
      "outputs": [],
      "stateMutability": "nonpayable",
      "type": "function"
    },
    {
      "inputs": [
        {
          "internalType": "address",
          "name": "from",
          "type": "address"
        },
        {
          "internalType": "address",
          "name": "to",
          "type": "address"
        },
        {
          "internalType": "uint256",
          "name": "tokenId",
          "type": "uint256"
        },
        {
          "internalType": "bytes",
          "name": "data",
          "type": "bytes"
        }
      ],
      "name": "safeTransferFrom",
      "outputs": [],
      "stateMutability": "nonpayable",
      "type": "function"
    },
    {
      "inputs": [
        {
          "internalType": "address",
          "name": "operator",
          "type": "address"
        },
        {
          "internalType": "bool",
          "name": "approved",
          "type": "bool"
        }
      ],
      "name": "setApprovalForAll",
      "outputs": [],
      "stateMutability": "nonpayable",
      "type": "function"
    },
    {
      "inputs": [
        {
          "internalType": "bytes4",
          "name": "interfaceId",
          "type": "bytes4"
        }
      ],
      "name": "supportsInterface",
      "outputs": [
        {
          "internalType": "bool",
          "name": "",
          "type": "bool"
        }
      ],
      "stateMutability": "view",
      "type": "function"
    },
    {
      "inputs": [],
      "name": "symbol",
      "outputs": [
        {
          "internalType": "string",
          "name": "",
          "type": "string"
        }
      ],
      "stateMutability": "view",
      "type": "function"
    },
    {
      "inputs": [
        {
          "internalType": "uint256",
          "name": "tokenId",
          "type": "uint256"
        }
      ],
      "name": "tokenURI",
      "outputs": [
        {
          "internalType": "string",
          "name": "",
          "type": "string"
        }
      ],
      "stateMutability": "view",
      "type": "function"
    },
    {
      "inputs": [
        {
          "internalType": "address",
          "name": "from",
          "type": "address"
        },
        {
          "internalType": "address",
          "name": "to",
          "type": "address"
        },
        {
          "internalType": "uint256",
          "name": "tokenId",
          "type": "uint256"
        }
      ],
      "name": "transferFrom",
      "outputs": [],
      "stateMutability": "nonpayable",
      "type": "function"
    },
    {
      "inputs": [
        {
          "internalType": "address",
          "name": "newOwner",
          "type": "address"
        }
      ],
      "name": "transferOwnership",
      "outputs": [],
      "stateMutability": "nonpayable",
      "type": "function"
    }
  ],
  "bytecode": "0x608060405234801561001057600080fd5b506040516129f53803806129f58339818101604052810190610032919061036a565b3384848160009081610044919061063c565b508060019081610054919061063c565b505050600073ffffffffffffffffffffffffffffffffffffffff168173ffffffffffffffffffffffffffffffffffffffff16036100c95760006040517f1e4fbdf70000000000000000000000000000000000000000000000000000000081526004016100c0919061074f565b60405180910390fd5b6100d8816100f960201b60201c565b5081600890816100e8919061063c565b50806009819055505050505061076a565b6000600660009054906101000a900473ffffffffffffffffffffffffffffffffffffffff16905081600660006101000a81548173ffffffffffffffffffffffffffffffffffffffff021916908373ffffffffffffffffffffffffffffffffffffffff1602179055508173ffffffffffffffffffffffffffffffffffffffff168173ffffffffffffffffffffffffffffffffffffffff167f8be0079c531659141344cd1fd0a4f28419497f9722a3daafe3b4186f6b6457e060405160405180910390a35050565b6000604051905090565b600080fd5b600080fd5b600080fd5b600080fd5b6000601f19601f8301169050919050565b7f4e487b7100000000000000000000000000000000000000000000000000000000600052604160045260246000fd5b610226826101dd565b810181811067ffffffffffffffff82111715610245576102446101ee565b5b80604052505050565b60006102586101bf565b9050610264828261021d565b919050565b600067ffffffffffffffff821115610284576102836101ee565b5b61028d826101dd565b9050602081019050919050565b60005b838110156102b857808201518184015260208101905061029d565b60008484015250505050565b60006102d76102d284610269565b61024e565b9050828152602081018484840111156102f3576102f26101d8565b5b6102fe84828561029a565b509392505050565b600082601f83011261031b5761031a6101d3565b5b815161032b8482602086016102c4565b91505092915050565b6000819050919050565b61034781610334565b811461035257600080fd5b50565b6000815190506103648161033e565b92915050565b60008060008060808587031215610384576103836101c9565b5b600085015167ffffffffffffffff8111156103a2576103a16101ce565b5b6103ae87828801610306565b945050602085015167ffffffffffffffff8111156103cf576103ce6101ce565b5b6103db87828801610306565b935050604085015167ffffffffffffffff8111156103fc576103fb6101ce565b5b61040887828801610306565b925050606061041987828801610355565b91505092959194509250565b600081519050919050565b7f4e487b7100000000000000000000000000000000000000000000000000000000600052602260045260246000fd5b6000600282049050600182168061047757607f821691505b60208210810361048a57610489610430565b5b50919050565b60008190508160005260206000209050919050565b60006020601f8301049050919050565b600082821b905092915050565b6000600883026104f27fffffffffffffffffffffffffffffffffffffffffffffffffffffffffffffffff826104b5565b6104fc86836104b5565b95508019841693508086168417925050509392505050565b6000819050919050565b600061053961053461052f84610334565b610514565b610334565b9050919050565b6000819050919050565b6105538361051e565b61056761055f82610540565b8484546104c2565b825550505050565b600090565b61057c61056f565b61058781848461054a565b505050565b5b818110156105ab576105a0600082610574565b60018101905061058d565b5050565b601f8211156105f0576105c181610490565b6105ca846104a5565b810160208510156105d9578190505b6105ed6105e5856104a5565b83018261058c565b50505b505050565b600082821c905092915050565b6000610613600019846008026105f5565b1980831691505092915050565b600061062c8383610602565b9150826002028217905092915050565b61064582610425565b67ffffffffffffffff81111561065e5761065d6101ee565b5b610668825461045f565b6106738282856105af565b600060209050601f8311600181146106a65760008415610694578287015190505b61069e8582610620565b865550610706565b601f1984166106b486610490565b60005b828110156106dc578489015182556001820191506020850194506020810190506106b7565b868310156106f957848901516106f5601f891682610602565b8355505b6001600288020188555050505b505050505050565b600073ffffffffffffffffffffffffffffffffffffffff82169050919050565b60006107398261070e565b9050919050565b6107498161072e565b82525050565b60006020820190506107646000830184610740565b92915050565b61227c806107796000396000f3fe608060405234801561001057600080fd5b50600436106101165760003560e01c8063715018a6116100a2578063b88d4fde11610071578063b88d4fde146102cb578063c87b56dd146102e7578063d5abeb0114610317578063e985e9c514610335578063f2fde38b1461036557610116565b8063715018a6146102695780638da5cb5b1461027357806395d89b4114610291578063a22cb465146102af57610116565b806323b872dd116100e957806323b872dd146101b557806340d097c3146101d157806342842e0e146101ed5780636352211e1461020957806370a082311461023957610116565b806301ffc9a71461011b57806306fdde031461014b578063081812fc14610169578063095ea7b314610199575b600080fd5b610135600480360381019061013091906119e3565b610381565b6040516101429190611a2b565b60405180910390f35b610153610463565b6040516101609190611ad6565b60405180910390f35b610183600480360381019061017e9190611b2e565b6104f5565b6040516101909190611b9c565b60405180910390f35b6101b360048036038101906101ae9190611be3565b610511565b005b6101cf60048036038101906101ca9190611c23565b610527565b005b6101eb60048036038101906101e69190611c76565b610629565b005b61020760048036038101906102029190611c23565b6106a0565b005b610223600480360381019061021e9190611b2e565b6106c0565b6040516102309190611b9c565b60405180910390f35b610253600480360381019061024e9190611c76565b6106d2565b6040516102609190611cb2565b60405180910390f35b61027161078c565b005b61027b6107a0565b6040516102889190611b9c565b60405180910390f35b6102996107ca565b6040516102a69190611ad6565b60405180910390f35b6102c960048036038101906102c49190611cf9565b61085c565b005b6102e560048036038101906102e09190611e6e565b610872565b005b61030160048036038101906102fc9190611b2e565b610897565b60405161030e9190611ad6565b60405180910390f35b61031f6108a9565b60405161032c9190611cb2565b60405180910390f35b61034f600480360381019061034a9190611ef1565b6108af565b60405161035c9190611a2b565b60405180910390f35b61037f600480360381019061037a9190611c76565b610943565b005b60007f80ac58cd000000000000000000000000000000000000000000000000000000007bffffffffffffffffffffffffffffffffffffffffffffffffffffffff1916827bffffffffffffffffffffffffffffffffffffffffffffffffffffffff1916148061044c57507f5b5e139f000000000000000000000000000000000000000000000000000000007bffffffffffffffffffffffffffffffffffffffffffffffffffffffff1916827bffffffffffffffffffffffffffffffffffffffffffffffffffffffff1916145b8061045c575061045b826109c9565b5b9050919050565b60606000805461047290611f60565b80601f016020809104026020016040519081016040528092919081815260200182805461049e90611f60565b80156104eb5780601f106104c0576101008083540402835291602001916104eb565b820191906000526020600020905b8154815290600101906020018083116104ce57829003601f168201915b5050505050905090565b600061050082610a33565b5061050a82610abb565b9050919050565b610523828261051e610af8565b610b00565b5050565b600073ffffffffffffffffffffffffffffffffffffffff168273ffffffffffffffffffffffffffffffffffffffff16036105995760006040517f64a0ae920000000000000000000000000000000000000000000000000000000081526004016105909190611b9c565b60405180910390fd5b60006105ad83836105a8610af8565b610b12565b90508373ffffffffffffffffffffffffffffffffffffffff168173ffffffffffffffffffffffffffffffffffffffff1614610623578382826040517f64283d7b00000000000000000000000000000000000000000000000000000000815260040161061a93929190611f91565b60405180910390fd5b50505050565b610631610d2c565b60095460075410610677576040517f08c379a000000000000000000000000000000000000000000000000000000000815260040161066e90612014565b60405180910390fd5b60006007600081548092919061068c90612063565b91905055905061069c8282610db3565b5050565b6106bb83838360405180602001604052806000815250610872565b505050565b60006106cb82610a33565b9050919050565b60008073ffffffffffffffffffffffffffffffffffffffff168273ffffffffffffffffffffffffffffffffffffffff16036107455760006040517f89c62b6400000000000000000000000000000000000000000000000000000000815260040161073c9190611b9c565b60405180910390fd5b600360008373ffffffffffffffffffffffffffffffffffffffff1673ffffffffffffffffffffffffffffffffffffffff168152602001908152602001600020549050919050565b610794610d2c565b61079e6000610dd1565b565b6000600660009054906101000a900473ffffffffffffffffffffffffffffffffffffffff16905090565b6060600180546107d990611f60565b80601f016020809104026020016040519081016040528092919081815260200182805461080590611f60565b80156108525780601f1061082757610100808354040283529160200191610852565b820191906000526020600020905b81548152906001019060200180831161083557829003601f168201915b5050505050905090565b61086e610867610af8565b8383610e97565b5050565b61087d848484610527565b610891610888610af8565b85858585611006565b50505050565b60606108a2826111b7565b9050919050565b60095481565b6000600560008473ffffffffffffffffffffffffffffffffffffffff1673ffffffffffffffffffffffffffffffffffffffff16815260200190815260200160002060008373ffffffffffffffffffffffffffffffffffffffff1673ffffffffffffffffffffffffffffffffffffffff16815260200190815260200160002060009054906101000a900460ff16905092915050565b61094b610d2c565b600073ffffffffffffffffffffffffffffffffffffffff168173ffffffffffffffffffffffffffffffffffffffff16036109bd5760006040517f1e4fbdf70000000000000000000000000000000000000000000000000000000081526004016109b49190611b9c565b60405180910390fd5b6109c681610dd1565b50565b60007f01ffc9a7000000000000000000000000000000000000000000000000000000007bffffffffffffffffffffffffffffffffffffffffffffffffffffffff1916827bffffffffffffffffffffffffffffffffffffffffffffffffffffffff1916149050919050565b600080610a3f83611220565b9050600073ffffffffffffffffffffffffffffffffffffffff168173ffffffffffffffffffffffffffffffffffffffff1603610ab257826040517f7e273289000000000000000000000000000000000000000000000000000000008152600401610aa99190611cb2565b60405180910390fd5b80915050919050565b60006004600083815260200190815260200160002060009054906101000a900473ffffffffffffffffffffffffffffffffffffffff169050919050565b600033905090565b610b0d838383600161125d565b505050565b600080610b1e84611220565b9050600073ffffffffffffffffffffffffffffffffffffffff168373ffffffffffffffffffffffffffffffffffffffff1614610b6057610b5f818486611422565b5b600073ffffffffffffffffffffffffffffffffffffffff168173ffffffffffffffffffffffffffffffffffffffff1614610bf157610ba260008560008061125d565b6001600360008373ffffffffffffffffffffffffffffffffffffffff1673ffffffffffffffffffffffffffffffffffffffff168152602001908152602001600020600082825403925050819055505b600073ffffffffffffffffffffffffffffffffffffffff168573ffffffffffffffffffffffffffffffffffffffff1614610c74576001600360008773ffffffffffffffffffffffffffffffffffffffff1673ffffffffffffffffffffffffffffffffffffffff168152602001908152602001600020600082825401925050819055505b846002600086815260200190815260200160002060006101000a81548173ffffffffffffffffffffffffffffffffffffffff021916908373ffffffffffffffffffffffffffffffffffffffff160217905550838573ffffffffffffffffffffffffffffffffffffffff168273ffffffffffffffffffffffffffffffffffffffff167fddf252ad1be2c89b69c2b068fc378daa952ba7f163c4a11628f55a4df523b3ef60405160405180910390a4809150509392505050565b610d34610af8565b73ffffffffffffffffffffffffffffffffffffffff16610d526107a0565b73ffffffffffffffffffffffffffffffffffffffff1614610db157610d75610af8565b6040517f118cdaa7000000000000000000000000000000000000000000000000000000008152600401610da89190611b9c565b60405180910390fd5b565b610dcd8282604051806020016040528060008152506114e6565b5050565b6000600660009054906101000a900473ffffffffffffffffffffffffffffffffffffffff16905081600660006101000a81548173ffffffffffffffffffffffffffffffffffffffff021916908373ffffffffffffffffffffffffffffffffffffffff1602179055508173ffffffffffffffffffffffffffffffffffffffff168173ffffffffffffffffffffffffffffffffffffffff167f8be0079c531659141344cd1fd0a4f28419497f9722a3daafe3b4186f6b6457e060405160405180910390a35050565b600073ffffffffffffffffffffffffffffffffffffffff168273ffffffffffffffffffffffffffffffffffffffff1603610f0857816040517f5b08ba18000000000000000000000000000000000000000000000000000000008152600401610eff9190611b9c565b60405180910390fd5b80600560008573ffffffffffffffffffffffffffffffffffffffff1673ffffffffffffffffffffffffffffffffffffffff16815260200190815260200160002060008473ffffffffffffffffffffffffffffffffffffffff1673ffffffffffffffffffffffffffffffffffffffff16815260200190815260200160002060006101000a81548160ff0219169083151502179055508173ffffffffffffffffffffffffffffffffffffffff168373ffffffffffffffffffffffffffffffffffffffff167f17307eab39ab6107e8899845ad3d59bd9653f200f220920489ca2b5937696c3183604051610ff99190611a2b565b60405180910390a3505050565b60008373ffffffffffffffffffffffffffffffffffffffff163b11156111b0578273ffffffffffffffffffffffffffffffffffffffff1663150b7a02868685856040518563ffffffff1660e01b81526004016110659493929190612100565b6020604051808303816000875af19250505080156110a157506040513d601f19601f8201168201806040525081019061109e9190612161565b60015b611125573d80600081146110d1576040519150601f19603f3d011682016040523d82523d6000602084013e6110d6565b606091505b50600081510361111d57836040517f64a0ae920000000000000000000000000000000000000000000000000000000081526004016111149190611b9c565b60405180910390fd5b805181602001fd5b63150b7a0260e01b7bffffffffffffffffffffffffffffffffffffffffffffffffffffffff1916817bffffffffffffffffffffffffffffffffffffffffffffffffffffffff1916146111ae57836040517f64a0ae920000000000000000000000000000000000000000000000000000000081526004016111a59190611b9c565b60405180910390fd5b505b5050505050565b60606111c282610a33565b5060006111cd61150a565b905060008151116111ed5760405180602001604052806000815250611218565b806111f78461159c565b6040516020016112089291906121ca565b6040516020818303038152906040525b915050919050565b60006002600083815260200190815260200160002060009054906101000a900473ffffffffffffffffffffffffffffffffffffffff169050919050565b80806112965750600073ffffffffffffffffffffffffffffffffffffffff168273ffffffffffffffffffffffffffffffffffffffff1614155b156113ca5760006112a684610a33565b9050600073ffffffffffffffffffffffffffffffffffffffff168373ffffffffffffffffffffffffffffffffffffffff161415801561131157508273ffffffffffffffffffffffffffffffffffffffff168173ffffffffffffffffffffffffffffffffffffffff1614155b8015611324575061132281846108af565b155b1561136657826040517fa9fbf51f00000000000000000000000000000000000000000000000000000000815260040161135d9190611b9c565b60405180910390fd5b81156113c857838573ffffffffffffffffffffffffffffffffffffffff168273ffffffffffffffffffffffffffffffffffffffff167f8c5be1e5ebec7d5bd14f71427d1e84f3dd0314c0f7b2291e5b200ac8c7c3b92560405160405180910390a45b505b836004600085815260200190815260200160002060006101000a81548173ffffffffffffffffffffffffffffffffffffffff021916908373ffffffffffffffffffffffffffffffffffffffff16021790555050505050565b61142d83838361166a565b6114e157600073ffffffffffffffffffffffffffffffffffffffff168373ffffffffffffffffffffffffffffffffffffffff16036114a257806040517f7e2732890000000000000000000000000000000000000000000000000000000081526004016114999190611cb2565b60405180910390fd5b81816040517f177e802f0000000000000000000000000000000000000000000000000000000081526004016114d89291906121ee565b60405180910390fd5b505050565b6114f0838361172b565b6115056114fb610af8565b6000858585611006565b505050565b60606008805461151990611f60565b80601f016020809104026020016040519081016040528092919081815260200182805461154590611f60565b80156115925780601f1061156757610100808354040283529160200191611592565b820191906000526020600020905b81548152906001019060200180831161157557829003601f168201915b5050505050905090565b6060600060016115ab84611824565b01905060008167ffffffffffffffff8111156115ca576115c9611d43565b5b6040519080825280601f01601f1916602001820160405280156115fc5781602001600182028036833780820191505090505b509050600082602001820190505b60011561165f578080600190039150507f3031323334353637383961626364656600000000000000000000000000000000600a86061a8153600a858161165357611652612217565b5b0494506000850361160a575b819350505050919050565b60008073ffffffffffffffffffffffffffffffffffffffff168373ffffffffffffffffffffffffffffffffffffffff161415801561172257508273ffffffffffffffffffffffffffffffffffffffff168473ffffffffffffffffffffffffffffffffffffffff1614806116e357506116e284846108af565b5b8061172157508273ffffffffffffffffffffffffffffffffffffffff1661170983610abb565b73ffffffffffffffffffffffffffffffffffffffff16145b5b90509392505050565b600073ffffffffffffffffffffffffffffffffffffffff168273ffffffffffffffffffffffffffffffffffffffff160361179d5760006040517f64a0ae920000000000000000000000000000000000000000000000000000000081526004016117949190611b9c565b60405180910390fd5b60006117ab83836000610b12565b9050600073ffffffffffffffffffffffffffffffffffffffff168173ffffffffffffffffffffffffffffffffffffffff161461181f5760006040517f73c6ac6e0000000000000000000000000000000000000000000000000000000081526004016118169190611b9c565b60405180910390fd5b505050565b600080600090507a184f03e93ff9f4daa797ed6e38ed64bf6a1f0100000000000000008310611882577a184f03e93ff9f4daa797ed6e38ed64bf6a1f010000000000000000838161187857611877612217565b5b0492506040810190505b6d04ee2d6d415b85acef810000000083106118bf576d04ee2d6d415b85acef810000000083816118b5576118b4612217565b5b0492506020810190505b662386f26fc1000083106118ee57662386f26fc1000083816118e4576118e3612217565b5b0492506010810190505b6305f5e1008310611917576305f5e100838161190d5761190c612217565b5b0492506008810190505b612710831061193c57612710838161193257611931612217565b5b0492506004810190505b6064831061195f576064838161195557611954612217565b5b0492506002810190505b600a831061196e576001810190505b80915050919050565b6000604051905090565b600080fd5b600080fd5b60007fffffffff0000000000000000000000000000000000000000000000000000000082169050919050565b6119c08161198b565b81146119cb57600080fd5b50565b6000813590506119dd816119b7565b92915050565b6000602082840312156119f9576119f8611981565b5b6000611a07848285016119ce565b91505092915050565b60008115159050919050565b611a2581611a10565b82525050565b6000602082019050611a406000830184611a1c565b92915050565b600081519050919050565b600082825260208201905092915050565b60005b83811015611a80578082015181840152602081019050611a65565b60008484015250505050565b6000601f19601f8301169050919050565b6000611aa882611a46565b611ab28185611a51565b9350611ac2818560208601611a62565b611acb81611a8c565b840191505092915050565b60006020820190508181036000830152611af08184611a9d565b905092915050565b6000819050919050565b611b0b81611af8565b8114611b1657600080fd5b50565b600081359050611b2881611b02565b92915050565b600060208284031215611b4457611b43611981565b5b6000611b5284828501611b19565b91505092915050565b600073ffffffffffffffffffffffffffffffffffffffff82169050919050565b6000611b8682611b5b565b9050919050565b611b9681611b7b565b82525050565b6000602082019050611bb16000830184611b8d565b92915050565b611bc081611b7b565b8114611bcb57600080fd5b50565b600081359050611bdd81611bb7565b92915050565b60008060408385031215611bfa57611bf9611981565b5b6000611c0885828601611bce565b9250506020611c1985828601611b19565b9150509250929050565b600080600060608486031215611c3c57611c3b611981565b5b6000611c4a86828701611bce565b9350506020611c5b86828701611bce565b9250506040611c6c86828701611b19565b9150509250925092565b600060208284031215611c8c57611c8b611981565b5b6000611c9a84828501611bce565b91505092915050565b611cac81611af8565b82525050565b6000602082019050611cc76000830184611ca3565b92915050565b611cd681611a10565b8114611ce157600080fd5b50565b600081359050611cf381611ccd565b92915050565b60008060408385031215611d1057611d0f611981565b5b6000611d1e85828601611bce565b9250506020611d2f85828601611ce4565b9150509250929050565b600080fd5b600080fd5b7f4e487b7100000000000000000000000000000000000000000000000000000000600052604160045260246000fd5b611d7b82611a8c565b810181811067ffffffffffffffff82111715611d9a57611d99611d43565b5b80604052505050565b6000611dad611977565b9050611db98282611d72565b919050565b600067ffffffffffffffff821115611dd957611dd8611d43565b5b611de282611a8c565b9050602081019050919050565b82818337600083830152505050565b6000611e11611e0c84611dbe565b611da3565b905082815260208101848484011115611e2d57611e2c611d3e565b5b611e38848285611def565b509392505050565b600082601f830112611e5557611e54611d39565b5b8135611e65848260208601611dfe565b91505092915050565b60008060008060808587031215611e8857611e87611981565b5b6000611e9687828801611bce565b9450506020611ea787828801611bce565b9350506040611eb887828801611b19565b925050606085013567ffffffffffffffff811115611ed957611ed8611986565b5b611ee587828801611e40565b91505092959194509250565b60008060408385031215611f0857611f07611981565b5b6000611f1685828601611bce565b9250506020611f2785828601611bce565b9150509250929050565b7f4e487b7100000000000000000000000000000000000000000000000000000000600052602260045260246000fd5b60006002820490506001821680611f7857607f821691505b602082108103611f8b57611f8a611f31565b5b50919050565b6000606082019050611fa66000830186611b8d565b611fb36020830185611ca3565b611fc06040830184611b8d565b949350505050565b7f4d617820737570706c7920726561636865640000000000000000000000000000600082015250565b6000611ffe601283611a51565b915061200982611fc8565b602082019050919050565b6000602082019050818103600083015261202d81611ff1565b9050919050565b7f4e487b7100000000000000000000000000000000000000000000000000000000600052601160045260246000fd5b600061206e82611af8565b91507fffffffffffffffffffffffffffffffffffffffffffffffffffffffffffffffff82036120a05761209f612034565b5b600182019050919050565b600081519050919050565b600082825260208201905092915050565b60006120d2826120ab565b6120dc81856120b6565b93506120ec818560208601611a62565b6120f581611a8c565b840191505092915050565b60006080820190506121156000830187611b8d565b6121226020830186611b8d565b61212f6040830185611ca3565b818103606083015261214181846120c7565b905095945050505050565b60008151905061215b816119b7565b92915050565b60006020828403121561217757612176611981565b5b60006121858482850161214c565b91505092915050565b600081905092915050565b60006121a482611a46565b6121ae818561218e565b93506121be818560208601611a62565b80840191505092915050565b60006121d68285612199565b91506121e28284612199565b91508190509392505050565b60006040820190506122036000830185611b8d565b6122106020830184611ca3565b9392505050565b7f4e487b7100000000000000000000000000000000000000000000000000000000600052601260045260246000fdfea26469706673582212205f94cac8dfc64245e945e25a470ac61b1c3274d8258d4238a31a885c04a2d84664736f6c634300081c0033",
  "linkReferences": {},
  "deployedLinkReferences": {}
}